:020000040800F2
:1000000000000220CD5D0008855700088D570008CC
:10001000955700089D570008A557000800000000EC
:10002000000000000000000000000000AD570008C4
:10003000BB57000800000000C9570008D757000848
:100040001D5E00081D5E00081D5E00081D5E0008A4
:100050001D5E00081D5E00081D5E00081D5E000894
:100060001D5E0008E35700081D5E00081D5E0008C5
:100070001D5E00081D5E00081D5E0008F1570008A7
:100080001D5E00081D5E00081D5E000800000000E7
:100090000000000000000000000000001D5E0008DD
:1000A0001D5E00081D5E00081D5E00081D5E000844
:1000B00005580008195800081D5E00081D5E00085C
:1000C0001D5E00081D5E00081D5E00082D5800081A
:1000D00041580008555800081D5E00080000000047
:1000E0001D5E00081D5E00081D5E00080000000087
:1000F0000000000000000000000000001D5E00087D
:10010000000000001D5E00081D5E00081D5E000866
:1001100000000000000000000000000000000000DF
:100120001D5E00081D5E00081D5E00081D5E0008C3
:100130001D5E00080000000000000000000000003C
:100140000000000000000000000000001D5E00082C
:100150001D5E00081D5E00081D5E00081D5E000893
:100160001D5E00081D5E0008000000000000000089
:10017000000000000000000000000000000000007F
:10018000000000001D5E00080000000000000000EC
:080190001D5E00081D5E000861
:1001A00010B5054C237833B9044B13B10448AFF3B1
:1001B00000800123237010BDF0010020000000002A
:1001C00004CC000808B5034B1BB103490348AFF347
:1001D000008008BD00000000F401002004CC0008ED
:1001E00001F0FF01102A2BDB10F0070F08D010F8E8
:1001F000013B013A8B422DD010F0070F42B3F6D1EC
:10020000F0B441EA012141EA014122F007047FF004
:1002100000070023F0E80256083C85EA010586EA5B
:10022000010685FA47F5A3FA87F586FA47F6A5FA97
:1002300087F68EB9EED1F0BC01F0FF0102F00702A3
:1002400032B110F8013B013A83EA010313B1F8D14E
:100250000020704701387047002D06BF354603382F
:10026000073815F0010F07D1013015F4807F02BF68
:10027000013015F4C03F0130F0BC0138704700BFB9
:10028000034613F8012B002AFBD1181A01387047D6
:1002900081F0004102E000BF83F0004330B54FEA37
:1002A00041044FEA430594EA050F08BF90EA020FA4
:1002B0001FBF54EA000C55EA020C7FEA645C7FEA37
:1002C000655C00F0E2804FEA5454D4EB5555B8BF5A
:1002D0006D420CDD2C4480EA020281EA030382EACB
:1002E000000083EA010180EA020281EA0303362D5D
:1002F00088BF30BD11F0004F4FEA01314FF4801C30
:100300004CEA113102D0404261EB410113F0004F41
:100310004FEA03334CEA133302D0524263EB4303F8
:1003200094EA050F00F0A780A4F10104D5F1200E96
:100330000DDB02FA0EFC22FA05F2801841F10001F1
:1003400003FA0EF2801843FA05F359410EE0A5F1C5
:1003500020050EF1200E012A03FA0EFC28BF4CF0F6
:10036000020C43FA05F3C01851EBE37101F00045AC
:1003700007D54FF0000EDCF1000C7EEB00006EEBB9
:100380000101B1F5801F1BD3B1F5001F0CD3490843
:100390005FEA30004FEA3C0C04F101044FEA44529A
:1003A00012F5800F80F09A80BCF1004F08BF5FEA21
:1003B000500C50F1000041EB045141EA050130BD01
:1003C0005FEA4C0C404141EB0101013C28BFB1F513
:1003D000801FE9D291F0000F04BF01460020B1FA5E
:1003E00081F308BF2033A3F10B03B3F120020CDA31
:1003F0000C3208DD02F1140CC2F10C0201FA0CF00F
:1004000021FA02F10CE002F11402D8BFC2F1200C73
:1004100001FA02F120FA0CFCDCBF41EA0C01904029
:10042000E41AA2BF01EB0451294330BD6FEA040472
:100430001F3C1CDA0C340EDC04F11404C4F120025D
:1004400020FA04F001FA02F340EA030021FA04F36F
:1004500045EA030130BDC4F10C04C4F1200220FAC6
:1004600002F001FA04F340EA0300294630BD21FA04
:1004700004F0294630BD94F0000F83F4801306BFCA
:1004800081F480110134013D4EE77FEA645C18BFBE
:100490007FEA655C29D094EA050F08BF90EA020F55
:1004A00005D054EA000C04BF1946104630BD91EA4D
:1004B000030F1EBF0021002030BD5FEA545C05D150
:1004C0004000494128BF41F0004130BD14F580048F
:1004D0003CBF01F5801130BD01F0004545F0FE4103
:1004E00041F470014FF0000030BD7FEA645C1ABF38
:1004F000194610467FEA655C1CBF0B46024650EA6F
:10050000013406BF52EA033591EA030F41F400219A
:1005100030BD00BF90F0000F04BF0021704730B520
:100520004FF4806404F132044FF000054FF00001F5
:1005300050E700BF90F0000F04BF0021704730B5B6
:100540004FF4806404F1320410F0004548BF40428B
:100550004FF000013EE700BF42004FEAE2014FEAE0
:1005600031014FEA02701FBF12F07F4393F07F4FBB
:1005700081F06051704732F07F4208BF704793F0BE
:100580007F4F04BF41F40021704730B54FF46074D1
:1005900001F0004521F000411CE700BF50EA0102D4
:1005A00008BF704730B54FF000050AE050EA01027D
:1005B00008BF704730B511F0004502D5404261EBED
:1005C00041014FF4806404F132045FEA915C3FF42E
:1005D000D8AE4FF003025FEADC0C18BF03325FEACB
:1005E000DC0C18BF033202EBDC02C2F1200300FA7C
:1005F00003FC20FA02F001FA03FE40EA0E0021FAA1
:1006000002F11444BDE600BF70B54FF0FF0C4CF48E
:10061000E06C1CEA11541DBF1CEA135594EA0C0F40
:1006200095EA0C0F00F0DEF82C4481EA030621EA7B
:100630004C5123EA4C5350EA013518BF52EA0335B6
:1006400041F4801143F4801338D0A0FB02CE4FF068
:100650000005E1FB02E506F00042E0FB03E54FF098
:100660000006E1FB03569CF0000F18BF4EF0010E90
:10067000A4F1FF04B6F5007F64F5407404D25FEA8C
:100680004E0E6D4146EB060642EAC62141EA55513F
:100690004FEAC52040EA5E504FEACE2EB4F1FD0C81
:1006A00088BFBCF5E06F1ED8BEF1004F08BF5FEAFF
:1006B000500E50F1000041EB045170BD06F00046B1
:1006C00046EA010140EA020081EA0301B4EB5C045E
:1006D000C2BFD4EB0C0541EA045170BD41F4801156
:1006E0004FF0000E013C00F3AB8014F1360FDEBF7B
:1006F000002001F0004170BDC4F10004203C35DA57
:100700000C341BDC04F11404C4F1200500FA05F3D9
:1007100020FA04F001FA05F240EA020001F000427A
:1007200021F0004110EBD37021FA04F642EB0601F0
:100730005EEA430E08BF20EAD37070BDC4F10C041A
:10074000C4F1200500FA04F320FA05F001FA04F2DE
:1007500040EA020001F0004110EBD37041F10001CA
:100760005EEA430E08BF20EAD37070BDC4F12005D5
:1007700000FA05F24EEA020E20FA04F301FA05F23D
:1007800043EA020321FA04F001F0004121FA04F2E5
:1007900020EA020000EBD3705EEA430E08BF20EAB5
:1007A000D37070BD94F0000F0FD101F000464000EF
:1007B00041EB010111F4801F08BF013CF7D041EA71
:1007C000060195F0000F18BF704703F00046520075
:1007D00043EB030313F4801F08BF013DF7D043EA46
:1007E0000603704794EA0C0F0CEA135518BF95EAFC
:1007F0000C0F0CD050EA410618BF52EA4306D1D183
:1008000081EA030101F000414FF0000070BD50EAA1
:10081000410606BF1046194652EA430619D094EA2B
:100820000C0F02D150EA013613D195EA0C0F05D115
:1008300052EA03361CBF104619460AD181EA030169
:1008400001F0004141F0FE4141F470014FF0000021
:1008500070BD41F0FE4141F4780170BD70B54FF0BC
:10086000FF0C4CF4E06C1CEA11541DBF1CEA13553C
:1008700094EA0C0F95EA0C0F00F0A7F8A4EB05041E
:1008800081EA030E52EA03354FEA013100F0888015
:100890004FEA03334FF0805545EA131343EA1263DE
:1008A0004FEA022245EA111545EA10654FEA002693
:1008B0000EF000419D4208BF964244F1FD0404F54C
:1008C000407402D25B084FEA3202B61A65EB0305A8
:1008D0005B084FEA32024FF480104FF4002CB6EB65
:1008E000020E75EB030E22BFB61A754640EA0C00E5
:1008F0005B084FEA3202B6EB020E75EB030E22BF25
:10090000B61A754640EA5C005B084FEA3202B6EB65
:10091000020E75EB030E22BFB61A754640EA9C0024
:100920005B084FEA3202B6EB020E75EB030E22BFF4
:10093000B61A754640EADC0055EA060E18D04FEAB2
:10094000051545EA16754FEA06164FEAC30343EA52
:1009500052734FEAC2025FEA1C1CC0D111F4801F1F
:100960000BD141EA00014FF000004FF0004CB6E718
:1009700011F4801F04BF01430020B4F1FD0C88BFB7
:10098000BCF5E06F3FF6AFAEB5EB030C04BFB6EBC2
:10099000020C5FEA500C50F1000041EB045170BDB5
:1009A0000EF0004E4EEA113114EB5C04C2BFD4EBE2
:1009B0000C0541EA045170BD41F480114FF0000E66
:1009C000013C90E645EA060E8DE60CEA135594EAE2
:1009D0000C0F08BF95EA0C0F3FF43BAF94EA0C0FE5
:1009E0000AD150EA01347FF434AF95EA0C0F7FF45A
:1009F00025AF104619462CE795EA0C0F06D152EAAE
:100A000003353FF4FDAE1046194622E750EA410691
:100A100018BF52EA43067FF4C5AE50EA41047FF4A2
:100A20000DAF52EA43057FF4EBAE12E74FF0FF3C07
:100A300006E000BF4FF0010C02E000BF4FF0010CD8
:100A40004DF804CD4FEA410C7FEA6C5C4FEA430C51
:100A500018BF7FEA6C5C1BD001B050EA410C0CBFA0
:100A600052EA430C91EA030F02BF90EA020F002002
:100A7000704710F1000F91EA030F58BF994208BF69
:100A800090422CBFD8176FEAE37040F00100704726
:100A90004FEA410C7FEA6C5C02D150EA013C07D17D
:100AA0004FEA430C7FEA6C5CD6D152EA033CD3D0C8
:100AB0005DF8040B704700BF8446104662468C46C2
:100AC0001946634600E000BF01B5FFF7B7FF0028F5
:100AD00048BF10F1000F01BD4DF808EDFFF7F4FF1E
:100AE0000CBF012000205DF808FB00BF4DF808EDA9
:100AF000FFF7EAFF34BF012000205DF808FB00BFCC
:100B00004DF808EDFFF7E0FF94BF012000205DF8ED
:100B100008FB00BF4DF808EDFFF7CEFF94BF0120A2
:100B200000205DF808FB00BF4DF808EDFFF7C4FF9B
:100B300034BF012000205DF808FB00BF4FEA410CE4
:100B40007FEA6C5C02D150EA013C0AD14FEA430CC7
:100B50007FEA6C5C02D152EA033C02D14FF0000004
:100B600070474FF0010070474FEA410212F5001242
:100B700015D211D56FF47873B3EB625212D94FEAE4
:100B8000C12343F0004343EA505311F0004F23FACE
:100B900002F018BF404270474FF00000704750EA23
:100BA000013005D111F0004008BF6FF000407047E0
:100BB0004FF00000704700BF4A0011D212F500123A
:100BC00011D20DD56FF47873B3EB62520ED44FEAA5
:100BD000C12343F0004343EA505323FA02F0704725
:100BE0004FF00000704750EA013002D14FF0FF3063
:100BF00070474FF00000704753B94AB9002908BF49
:100C000000281CBF4FF0FF314FF0FF3000F06AB9F1
:100C1000ADF1080C6DE904CE00F006F8DDF804E053
:100C2000DDE9022304B070472DE9F047089D0C462A
:100C3000002B4ED194468C458646B2FA82F262D998
:100C40004AB1C2F12003914020FA03F30CFA02FCEE
:100C5000194300FA02FE4FEA1C471FFA8CF6B1FB5B
:100C6000F7F44FEA1E4307FB141143EA014304FB68
:100C700006F199420AD91CEB030304F1FF3080F01E
:100C80001281994240F20F81023C6344591A1FFAC3
:100C90008EF3B1FBF7F007FB101143EA014300FBB1
:100CA00006F69E420AD91CEB030300F1FF3180F0E7
:100CB000FC809E4240F2F980634402389B1B40EA6C
:100CC000044000211DB1D3400022C5E90032BDE837
:100CD000F0878B4205D90DB1C5E900010021084616
:100CE000F5E7B3FA83F1002946D1A34202D390423B
:100CF000C0F0F080861A64EB03030120002DE6D0DB
:100D0000C5E90063E3E7002A40F09080A1EB0C0402
:100D10004FEA1C481FFA8CF70121B4FBF8F64FEAA2
:100D20001E4308FB164443EA044307FB06F09842BF
:100D300008D91CEB030306F1FF3402D2984200F2FB
:100D4000CD8026461C1A1FFA8EF3B4FBF8F008FB80
:100D5000104443EA044300FB07F79F4208D91CEB09
:100D6000030300F1FF3402D29F4200F2B08020461C
:100D7000DB1B40EA0640A5E7C1F120068B4022FAC2
:100D800006F71F4320FA06FC04FA01F343EA0C03BA
:100D9000F44000FA01F8380C4FEA1349B4FBF0FEB6
:100DA0001FFA87FC00FB1E4449EA04440EFB0CF9C1
:100DB000A14502FA01F20AD93C190EF1FF3A80F07E
:100DC0008480A14540F28180AEF1020E3C44A4EB48
:100DD00009041FFA83F9B4FBF0F300FB134449EA5A
:100DE000044403FB0CFCA44507D93C1903F1FF3074
:100DF00067D2A44565D9023B3C4443EA0E40A0FBC0
:100E00000293A4EB0C049C42CE469C4651D34ED098
:100E100055B1B8EB0E0364EB0C0404FA06F6CB40B4
:100E20001E43CC40C5E90064002150E7C2F1200315
:100E300020FA03F10CFA02FC24FA03F394400C4369
:100E40004FEA1C4800FA02FE1FFA8CF7B3FBF8F0D9
:100E500008FB1031230C43EA014300FB07F19942E0
:100E600008D91CEB030300F1FF362CD299422AD992
:100E7000023863445B1AA4B2B3FBF8F108FB1133E8
:100E800044EA034401FB07F3A34208D91CEB040422
:100E900001F1FF3613D2A34211D902396444E41A96
:100EA00041EA004139E70446F0E6084606E7C8454E
:100EB000AED2B9EB020E63EB070C0138A8E731465E
:100EC000EDE7034699E73046D4E7D6467FE763442B
:100ED00002384DE70646234608460FE7023E6344C4
:100EE00030E700BF704700BF80B500AF002204218B
:100EF0006D4805F0C3FE0A2005F004F80122042124
:100F0000694805F0BBFE694B4FF4A0721A80684B2C
:100F10004FF4F0721A80E02000F03AFA002000F05E
:100F2000DFFA132000F0DCFA182000F0D9FA0420D0
:100F300000F0D6FA0F2000F0D3FA062000F0D0FA25
:100F40003A2000F0CDFA562000F0CAFA4D2000F009
:100F5000C7FA032000F0C4FA0A2000F0C1FA062004
:100F600000F0BEFA302000F0BBFA3E2000F0B8FAE4
:100F70000F2000F0B5FAE12000F00AFA002000F09E
:100F8000AFFA132000F0ACFA182000F0A9FA012003
:100F900000F0A6FA112000F0A3FA062000F0A0FA53
:100FA000382000F09DFA342000F09AFA4D2000F02D
:100FB00097FA062000F094FA0D2000F091FA0B2029
:100FC00000F08EFA312000F08BFA372000F088FA1A
:100FD0000F2000F085FAC02000F0DAF9182000F0A8
:100FE0007FFA162000F07CFAC12000F0D1F94520EC
:100FF00000F076FAC52000F0CBF9002000F070FA7E
:10100000632000F06DFA012000F06AFA362000F04B
:10101000BFF9F82000F064FA3A2000F0B9F9662030
:1010200000F05EFAB02000F0B3F9802000F058FA2A
:10103000B12000F0ADF9002000F052FA102000F0CD
:101040004FFAB42000F0A4F9022000F049FAB620CB
:1010500000F09EF9022000F043FAE92000F098F930
:10106000002000F03DFAF72000F092F9A92000F0EE
:1010700037FA512000F034FA2C2000F031FA8220A7
:1010800000F02EFA112000F083F9782004F03AFFE6
:10109000212000F07DF9782004F034FF292000F0B1
:1010A00077F900BF80BD00BF000402400C020020A1
:1010B0000E02002090B583B000AF044608461146EA
:1010C0001A462346FB800346BB800B467B801346B3
:1010D0003B802A2000F038F9FB881B0A9BB2DBB268
:1010E000184600F0D9F9FB88DBB2184600F0D4F9B5
:1010F0007B881B0A9BB2DBB2184600F0CDF97B88D7
:10110000DBB2184600F0C8F92B2000F01DF9BB88AF
:101110001B0A9BB2DBB2184600F0BEF9BB88DBB2FB
:10112000184600F0B9F93B881B0A9BB2DBB218469F
:1011300000F0B2F93B88DBB2184600F0ADF92C2084
:1011400000F002F900224FF40051064805F096FD28
:1011500001220221034805F091FD00BF0C37BD4676
:1011600090BD00BF0004024090B583B000AF0446BC
:10117000084611461A462346FB800346BB800B46B1
:101180007B8013463B80414BB3F90030B7F9062012
:101190009A4276DA3E4BB3F90030B7F904209A420E
:1011A0006FDAB7F90620B7F902301344374AB2F9BB
:1011B0000020934207DD354BB3F900309AB2FB882B
:1011C000D31A9BB27B80B7F90420B7F900301344DF
:1011D0002F4AB2F90020934207DD2D4BB3F90030BE
:1011E0009AB2BB88D31A9BB23B80F888B988FA8838
:1011F0007B8813449BB2013B9CB2BA883B88134462
:101200009BB2013B9BB22246FFF754FF0122022111
:10121000204805F033FD00224FF400511D4805F031
:101220002DFD3B88BB8016E07B88FB8009E03B8B73
:10123000184600F0D1F8B7F906309BB2013B9BB2DB
:10124000FB80B7F90630002BF1DCB7F904309BB214
:10125000013B9BB2BB80B7F90430002BE4DC0122D8
:101260004FF400510B4805F009FD01220221094805
:1012700005F004FD00224FF40051064805F0FEFC85
:1012800000E000BF0C37BD4690BD00BF0C0200203F
:101290000E0200200004024080B582B000AF034679
:1012A000FB71362000F050F8FB7903F00303DAB24B
:1012B000224B1A70214B1B78032B3BD801A252F80A
:1012C00023F000BFD5120008ED1200080513000836
:1012D0001D130008482000F0DFF8194B4FF4A072EE
:1012E0001A80184B4FF4F0721A8023E0282000F087
:1012F000D3F8134B4FF4F0721A80124B4FF4A072D4
:101300001A8017E0882000F0C7F80D4B4FF4A07248
:101310001A800C4B4FF4F0721A800BE0E82000F0BA
:10132000BBF8074B4FF4F0721A80064B4FF4A072D3
:101330001A8000BF00BF0837BD4680BD10020020E4
:101340000C0200200E02002080B582B000AF0346E0
:10135000FB71002202210C4805F090FC00224FF4A2
:101360000051094805F08AFCF91D012301220748B4
:1013700006F0D7F901224FF40051034805F07EFC36
:1013800000BF0837BD4680BD000402406C0200204B
:1013900080B582B000AF0346FB71002202210C48E9
:1013A00005F06CFC00224FF40051094805F066FC82
:1013B000F91D01230122074806F0B3F901224FF479
:1013C0000051034805F05AFC00BF0837BD4680BDF8
:1013D000000402406C02002080B584B000AF0346D8
:1013E000FB80FB88DB0A9BB2DBB2FB73FB885B11E3
:1013F000DBB203F03F03DBB2BB73FB88DBB203F06D
:101400001F03DBB27B73FB7B1A4613461B029B1A3E
:101410001E4A82FB03121A441211DB17D31ADBB2E5
:10142000FB73BB7B1A4613461B029B1A184A82FBAE
:1014300003121A445211DB17D31ADBB2BB737B7B46
:101440001A4613461B029B1A104A82FB03121A44C7
:101450001211DB17D31ADBB27B7307F10F010123E3
:1014600001220C4806F05DF907F10E01012301226B
:10147000084806F056F907F10D010123012205483D
:1014800006F04FF900BF1037BD4680BD43082184E8
:10149000832008826C02002080B582B000AF034632
:1014A000FB71012202210C4805F0E8FB00224FF4F9
:1014B0000051094805F0E2FBF91D0123012207480C
:1014C00006F02FF901224FF40051034805F0D6FB36
:1014D00000BF0837BD4680BD000402406C020020FA
:1014E00080B582B000AF0346FB71012202210C4897
:1014F00005F0C4FB00224FF40051094805F0BEFB83
:10150000F91D01230122074806F00BF901224FF4CF
:101510000051034805F0B2FB00BF0837BD4680BD4F
:10152000000402406C0200202DE9F0438DB000AFB2
:1015300003463960FB806B461E460023FB623B6816
:101540005B0040F2ED22934202D83B68FB6202E06E
:1015500040F2EE23FB6201220221694805F08EFB76
:1015600000224FF40051664805F088FBFB88DB0A37
:101570009BB287F82330FB885B11DBB203F03F039B
:1015800087F82230FB88DBB203F01F0387F8213095
:1015900097F8232013461B029B1A5A4A82FB031218
:1015A0001A441211DB17D31A87F8233097F8222038
:1015B00013461B029B1A544A82FB03121A4452110F
:1015C000DB17D31A87F8223097F8212013461B0225
:1015D0009B1A4C4A82FB03121A441211DB17D31ACE
:1015E00087F82130F96A0B46013BFB6100238846EE
:1015F00099464FF000024FF000034FEAC90343EA57
:1016000058734FEAC80200230C461D464FF00002F3
:101610004FF00003EB0043EA5473E200CB1DDB08FC
:10162000DB00ADEB030D6B460033BB610023BB62F7
:1016300014E0BA69BB6A134497F823201A70BB6A96
:101640000133BA6997F82210D154BB6A0233BA69E0
:1016500097F82110D154BB6A0333BB62BA6AFB6AA4
:101660009A42E6D33A6813465B0013447B617A6979
:10167000FB6AB2FBF3F33B617B69FA6AB3FBF2F2FC
:10168000F96A01FB02F29B1AFB603B69002B18D040
:1016900000237B6211E01D4B00221A70FB6A9BB293
:1016A0001A46B9691A4806F043FC00BF174B1B786D
:1016B000002BFBD07B6A01337B627A6A3B699A42DA
:1016C000E9D3FB68002B0ED0104B00221A70FB6888
:1016D0009BB21A46B9690E4806F02AFC00BF0B4BB4
:1016E0001B78002BFBD001224FF40051044805F079
:1016F000C5FAB54600BF3437BD46BDE8F08300BF2C
:101700000004024043082184832008820C0000204A
:101710006C02002080B582B000AF0346FB8040F22F
:101720003F1340F2DF1200210020FFF7C3FCFB88CB
:101730004FF416311846FFF7F7FE00BF0837BD46D5
:1017400080BD90B58BB002AFBA607B600346FB8171
:101750000B46BB817B681B687B61BB681B88FB8376
:1017600000237B7700233B7700237B8300233B769A
:101770009BE000237B7656E03B7F002B09D1FB8B5F
:101780005A1CFA831A467B6913441B787B778023A3
:101790003B777A7F3B7F1340DBB2002B03D07B8B00
:1017A00001337B8339E07B8B002B36D0BB6893F908
:1017B00005301A467B7E1A447B8BD31A9AB297F86F
:1017C00030309BB212FB03F39AB2FB8913449BB2F5
:1017D00018B2BB6893F906301A463B7E13449AB29E
:1017E00097F830309BB212FB03F39AB2BB891344D3
:1017F0009BB219B297F830309BB27A8B12FB03F38D
:101800009BB21AB297F830301CB27B6B9BB200933C
:101810002346FFF7A9FC00237B833B7F5B083B77D4
:101820007B7E01337B76BB689B787A7E9A42A3D31A
:101830007B8B002B36D0BB6893F905301A467B7E34
:101840001A447B8BD31A9AB297F830309BB212FBB2
:1018500003F39AB2FB8913449BB218B2BB6893F9A5
:1018600006301A463B7E13449AB297F830309BB24A
:1018700012FB03F39AB2BB8913449BB219B297F8D7
:1018800030309BB27A8B12FB03F39BB21AB297F8FB
:1018900030301CB27B6B9BB200932346FFF764FC95
:1018A00000237B833B7E01333B76BB68DB783A7E4B
:1018B0009A42FFF45EAF00BF00BF2437BD4690BD23
:1018C00090B58FB002AFBA607B600346FB810B46D8
:1018D000BB81FB89FB85BB89BB8507F11C030C22FF
:1018E0007968184609F043F900237B8556E07B8D23
:1018F000BA6813441B7887F8293097F829300A2BE7
:101900000FD1FB89FB8597F826301A4697F84030AF
:101910009BB212FB03F39AB2BB8D13449BB2BB85FF
:1019200039E097F8243097F829209A4233D397F872
:10193000253097F829209A422DD897F829300D2B79
:1019400029D03A6A97F8293097F824105B1ADB00FF
:10195000D11807F114030822184609F008F907F115
:101960001C0407F11402B7F92C10B7F92E007B6C98
:10197000019397F8403000932346FFF7E2FE3B7E49
:101980001A4697F840309BB212FB03F39AB2FB8DD4
:1019900013449BB2FB857B8D01337B857C8DB868BE
:1019A000FEF76EFC03469C42A1D300BF00BF343754
:1019B000BD4690BD90B58BB002AF044608461146B7
:1019C0001A462346FB800346BB800B467B801346AA
:1019D0003B807A88FB88D31A002BB8BF5B42BB617F
:1019E0003A88BB88D31A002BB8BF5B427B61FA8868
:1019F0007B889A4201D2012301E04FF0FF333B6123
:101A0000BA883B889A4201D2012301E04FF0FF33AC
:101A1000FB60BA697B69D31AFB610023BB60B7F92D
:101A20000600B7F9041097F830301AB297F8303042
:101A30001CB27B6B9BB200932346FFF795FBFA88A1
:101A40007B889A4203D1BA883B889A421ED0FB69B0
:101A50005B00BB607B695B42BA689A4208DDFA6949
:101A60007B69D31AFB613B699AB2FB881344FB8004
:101A7000BA68BB699A42D2DAFA69BB691344FB615E
:101A8000FB689AB2BB881344BB80C8E700BF00BFA5
:101A90002437BD4690BD90B589B002AF04460846D4
:101AA00011461A462346FB800346BB800B467B80CB
:101AB00013467B707B88C3F101039BB2FB82012339
:101AC000BB827B881A46D203D31A5B009BB27B820F
:101AD00000233B827B88FB81ABE0B7F91630002BFB
:101AE0000EDBB7F90E309BB2013B9BB2FB817B8AC8
:101AF00002339BB27B82FA8A7B8A13449BB2FB82BD
:101B0000B7F910309BB201339BB23B82BB8A0233E0
:101B10009BB2BB82FA8ABB8A13449BB2FB827B785E
:101B200003F00103002B3FD0FA883B8A134498B29C
:101B3000BA88FB89D31A99B2FA883B8A13449CB2BB
:101B4000BA88FB89D31A9AB2FB895B009BB2134413
:101B50009AB23B8D13449AB2FB6A0193012300931E
:101B600013462246FFF726FFFA88FB89134498B2F2
:101B7000BA883B8AD31A99B2FA88FB8913449CB27B
:101B8000BA883B8AD31A9AB23B8A5B009BB2134451
:101B90009AB23B8D13449AB2FB6A019301230093DE
:101BA00013462246FFF706FF7B7803F00203002B63
:101BB0003FD0FA883B8AD31A98B2BA88FB89D31AE5
:101BC00099B2FA883B8AD31A9CB2BA88FB89D31A95
:101BD0009AB2FB895B009BB213449AB23B8D1344CB
:101BE0009AB2FB6A01930123009313462246FFF742
:101BF000E1FEFA88FB89D31A98B2BA883B8AD31AD5
:101C000099B2FA88FB89D31A9CB2BA883B8AD31A54
:101C10009AB23B8A5B009BB213449AB23B8D134449
:101C20009AB2FB6A01930123009313462246FFF701
:101C3000C1FEB7F91020B7F90E309A42FFF64DAF4A
:101C400000BF00BF1C37BD4690BD90B585B002AF48
:101C50000446084611461A462346FB800346BB80CD
:101C60000B467B8013463B80FA883B8B13449BB228
:101C700018B2B7F904103B8B5B009BB27A88D31A79
:101C80009BB21AB2B7F90040FB699BB2009323469E
:101C9000FFF76AFAFA887B8813449AB23B8BD31A0F
:101CA0009BB2013B9BB218B2BA883B8B13449BB2E8
:101CB00019B2B7F918403B8B5B009BB23A88D31A34
:101CC0009BB2013B9BB21BB2FA69019200930123C4
:101CD0002246FFF7E0FEFA883B8B13449BB218B212
:101CE000BA883B8B13449BB219B2B7F918403B8BAF
:101CF0005B009BB23A88D31A9BB2013B9BB21BB2EA
:101D0000FA690192009302232246FFF7C4FE00BF46
:101D10000C37BD4690BD000080B584B000AF786040
:101D200039604DE00023FB7347E02A4B1B6800221B
:101D30005A62294B1B881A46FB7B22FA03F3DAB25C
:101D4000FB7B79680B4402F00102D2B21A70FB7B74
:101D50007A6813441A78FB7B39680B441B789A42E3
:101D600015D0FB7B7A6813441A78FB7B62F07F0204
:101D7000D1B21A4AD154FB7B184602F001FB184B32
:101D80001B78012B03D13968786800F0CFFAFB7B10
:101D90007A681A44FB7B39680B4412781A70FB7B13
:101DA000082B07D90F4B00221A7001220E490F4849
:101DB00007F065F9FB7B0133FB73FB7B092BB4D97F
:101DC000084B1B78DBB2002BACD100BF00BF103733
:101DD000BD4680BDC4030020860400207C04002092
:101DE0006C04002095040020100600200C04002044
:101DF00080B483B000AF7860044B01221A7000BF3A
:101E00000C37BD465DF8047B704700BF0C00002016
:101E100080B584B000AFF860B9607A60FB70FB7881
:101E20009AB24FF0FF33F9680A4807F09DF83B7EFD
:101E30009AB24FF0FF33B968064807F095F84FF0B3
:101E4000FF3301227968034807F08EF800BF10378E
:101E5000BD4680BD0C04002080B487B000AFF860A0
:101E6000B9607A600023FB750023BB7543E0BB7D3E
:101E70009B00BA68134493ED007ABB7D9B00FA681F
:101E80001344D3ED007A77EE677AB5EE007AF4EE7C
:101E9000C77AF1EE10FA14DABB7D9B00FA6813449E
:101EA00093ED007ABB7D9B00BA681344D3ED007AB2
:101EB00077EE677AB5EE007AF4EEC77AF1EE10FAB3
:101EC00011DBBB7D9B00BA681A44BB7D9B00F9689F
:101ED0000B4412681A60BB7D7A68134401221A70A1
:101EE0000123FB7504E0BB7D7A68134400221A705D
:101EF000BB7D0133BB75BB7D092BB8D9FB7D184673
:101F00001C37BD465DF8047B7047000090B58FB06C
:101F100002AFDC23BB6232237B620F233B620523CB
:101F2000FB610323BB614FF6FF70FFF7F3FB002358
:101F3000FB621CE03B6A18B2FB6A9AB27B6A9BB2F6
:101F400012FB03F39AB2FB699BB213449BB219B222
:101F5000BB6A9BB25B009BB21AB2BB691BB241F277
:101F600082040094FFF700F9FB6A0133FB62FB6A0D
:101F7000052BDFDD0023FB6223E0FB6A9AB2BB6A1C
:101F80009BB212FB03F39AB23B6A9BB213449BB21F
:101F900018B2FB6919B2BB691CB27B6A9BB21A46C4
:101FA000920013449AB2BB699BB213449BB21BB21A
:101FB00041F2820200922246FFF7D6F8FB6A013313
:101FC000FB62FB6A022BD8DD0023FB6285E18F4AAE
:101FD000FB6A13441B78012B5CD13B6A9AB2BB6944
:101FE0009BB213449BB218B2FB6A9AB27B6A9BB253
:101FF00012FB03F39AB2FB699BB213449AB2BB691A
:102000009BB213449BB219B2BB6A9AB2BB699BB232
:102010005B009BB2D31A9BB21CB27B6A9AB2BB69BB
:102020009BB25B009BB2D31A9BB21BB24FF6FF72FE
:1020300000922246FFF798F8FB6A5C1C744AFB6A20
:102040009B0013441B681846FEF786FA02460B46AF
:10205000381DCDE9002322466E4908F0A5FC3B6AF5
:102060009BB20C3398B2FB6A9AB27B6A9BB212FBAA
:1020700003F39AB2FB699BB213449BB2233399B228
:102080003A1D4FF61F03019301230093624BFFF7A4
:1020900017FC4FE03B6A9AB2BB699BB213449BB2F8
:1020A00018B2FB6A9AB27B6A9BB212FB03F39AB234
:1020B000FB699BB213449AB2BB699BB213449BB2B7
:1020C00019B2BB6A9AB2BB699BB25B009BB2D31ACE
:1020D0009BB21CB27B6A9AB2BB699BB25B009BB29B
:1020E000D31A9BB21BB24FF6FF7200922246FFF743
:1020F0003BF8FB6A5A1C3B1D4849184608F054FC43
:102100003B6A9BB20C3398B2FB6A9AB27B6A9BB271
:1021100012FB03F39AB2FB699BB213449BB22333C5
:1021200099B23A1D4FF61F030193012300933A4BD6
:10213000FFF7C6FBFB6A0533344AD35C012B71D130
:102140003B6A9AB2BB6A9BB213449AB2BB699BB218
:1021500013449BB218B2FB6A9AB27B6A9BB212FB21
:1021600003F39AB2FB699BB213449AB2BB699BB268
:1021700013449BB219B2BB6A9AB2BB699BB25B00B3
:102180009BB2D31A9BB21CB27B6A9AB2BB699BB258
:102190005B009BB2D31A9BB21BB24FF6FF72009248
:1021A0002246FEF7E1FFFB6A9C1DFB6A0533184AD5
:1021B0009B0013441B681846FEF7CEF902460B46F7
:1021C000381DCDE900232246154908F0EDFB3B6A96
:1021D0009AB2BB6A9BB213449BB20C3398B2FB6AAF
:1021E0009AB27B6A9BB212FB03F39AB2FB699BB271
:1021F00013449BB2233399B23A1D4FF4F043019339
:1022000001230093044BFFF75BFB63E08C05002088
:102210009805002020CC0008ECF1000830CC000824
:1022200040CC00083B6A9AB2BB6A9BB213449AB294
:10223000BB699BB213449BB218B2FB6A9AB27B6A29
:102240009BB212FB03F39AB2FB699BB213449AB29E
:10225000BB699BB213449BB219B2BB6A9AB2BB6909
:102260009BB25B009BB2D31A9BB21CB27B6A9AB240
:10227000BB699BB25B009BB2D31A9BB21BB24FF6F9
:10228000FF7200922246FEF76FFFFB6A9A1D3B1D0C
:102290002249184608F088FB3B6A9AB2BB6A9BB297
:1022A00013449BB20C3398B2FB6A9AB27B6A9BB21E
:1022B00012FB03F39AB2FB699BB213449BB2233324
:1022C00099B23A1D4FF4F043019301230093144B4C
:1022D000FFF7F6FAFB6A0133FB62FB6A042B7FF718
:1022E00076AE4FF4FC6301930523009332234FF441
:1022F000877240F209116420FFF7A7FC00230193C5
:1023000001230093074B084A4FF49571AA20FFF769
:10231000D7FA00BF3437BD4690BD00BF30CC0008AF
:10232000ECF100080CD8000850CC0008B0B586B01D
:1023300002AF786039600023FB735AE3FB7B7A6855
:1023400013441A78FB7B39680B441B789A4200F0DF
:102350004D83FB7B7A681A44FB7B39680B44127807
:102360001A70FB7B022B00F2BC80FB7B3A681344A3
:102370001B78002B3AD1804B1B781846FEF7DAF811
:1023800004460D46FB7B7D4A127802FB03F3184698
:10239000FEF7D0F84FF03332794BFEF735F90246AD
:1023A0000B4620462946FDF779FF02460B461046AC
:1023B0001946FEF701FC034698B2724B1B7819468A
:1023C0006E4B1B781A46704B1B781C4640F2FF730D
:1023D0000193052300932346FFF737FCFB7B013372
:1023E0001A466A496A4808F0DFFA39E0624B1B78FE
:1023F0001846FEF79FF804460D46FB7B5F4A1278AD
:1024000002FB03F31846FEF795F84FF033325C4BAE
:10241000FEF7FAF802460B4620462946FDF73EFF36
:1024200002460B4610461946FEF7C6FB034698B215
:10243000544B1B781946514B1B781A46524B1B784C
:102440001C464FF61F030193052300932346FFF715
:10245000FCFBFB7B01331A464E494D4808F0A4FAB9
:10246000454B1B781846FEF765F804460D46FB7B86
:10247000424A127802FB03F31846FEF75BF84FF06E
:1024800033323F4BFEF7C0F802460B462046294642
:10249000FDF704FF02460B4614461D463E4B1B78D3
:1024A0001846FEF747F802460B4620462946FDF738
:1024B000F5FE02460B4610461946FEF77DFB034625
:1024C00098B2304B1B781A46344B1B78134499B2A0
:1024D0000023019301230093314B2D4AFFF7F0F9BC
:1024E00084E2FB7B022B40F2DD80FB7B052B00F2BC
:1024F000D980FB7B3A6813441B78002B52D11E4BCA
:102500001B781846FEF716F804460D46FB7B033B86
:102510001A4A127802FB03F31846FEF70BF84FF045
:102520003332174BFEF770F802460B462046294619
:10253000FDF7B4FE02460B4610461946FEF73CFB7B
:10254000034698B20F4B1B784B3399B20B4B1B7859
:102550001A460D4B1B781C4640F2FF73019305236E
:1025600000932346FFF771FBFB7B01331A460749B3
:10257000074808F019FA51E000000020020000208E
:102580003333F33F01000020030000205CCC00083F
:102590005804002068CC00080A0000200B0000202E
:1025A0000CD80008A54B1B781846FDF7C3FF04465E
:1025B0000D46FB7B033BA24A127802FB03F318464D
:1025C000FDF7B8FF4FF033329E4BFEF71DF8024681
:1025D0000B4620462946FDF761FE02460B46104693
:1025E0001946FEF7E9FA034698B2974B1B784B332E
:1025F00099B2934B1B781A46944B1B781C464FF6A6
:102600001F030193052300932346FFF71EFBFB7B6B
:1026100001331A468E498F4808F0C6F9874B1B785C
:102620001846FDF787FF04460D46FB7B033B844AB3
:10263000127802FB03F31846FDF77CFF4FF03332AC
:10264000804BFDF7E1FF02460B4620462946FDF789
:1026500025FE02460B4614461D467F4B1B78184646
:10266000FDF768FF02460B4620462946FDF716FE99
:1026700002460B4610461946FEF79EFA034698B2EC
:10268000714B1B781A46754B1B7813449BB24B3326
:1026900099B20023019301230093714B6D4AFFF718
:1026A0000FF9A3E1FB7B052B40F2DE80FB7B082BBF
:1026B00000F2DA80FB7B3A6813441B78002B3CD194
:1026C0005E4B1B781846FDF735FF04460D46FB7B35
:1026D000063B5B4A127802FB03F31846FDF72AFF1C
:1026E0004FF03332574BFDF78FFF02460B46204623
:1026F0002946FDF7D3FD02460B4610461946FEF764
:102700005BFA034698B2504B1B78963399B24C4B08
:102710001B781A464D4B1B781C4640F2FF73019301
:10272000052300932346FFF790FAFB7B01331A46FB
:102730004C49484808F038F93BE0404B1B781846B4
:10274000FDF7F8FE04460D46FB7B063B3C4A12783B
:1027500002FB03F31846FDF7EDFE4FF03332394B21
:10276000FDF752FF02460B4620462946FDF796FD2F
:1027700002460B4610461946FEF71EFA034698B26B
:10278000314B1B78963399B22D4B1B781A462F4B41
:102790001B781C464FF61F03019305230093234625
:1027A000FFF753FAFB7B01331A462949294808F001
:1027B000FBF8224B1B781846FDF7BCFE04460D467D
:1027C000FB7B063B1E4A127802FB03F31846FDF71B
:1027D000B1FE4FF033321B4BFDF716FF02460B469E
:1027E00020462946FDF75AFD02460B4614461D4673
:1027F000194B1B781846FDF79DFE02460B462046F6
:102800002946FDF74BFD02460B4610461946FEF7DA
:10281000D3F9034698B20C4B1B781A460F4B1B7822
:1028200013449BB2963399B2002301930123009382
:102830000B4B084AFFF744F8D8E000BF0000002027
:10284000020000203333F33F01000020030000208A
:1028500068CC0008580400200A0000200B0000206B
:102860000CD800085CCC0008FB7B3A6813441B784A
:10287000002B3CD1634B1B781846FDF75BFE0446EA
:102880000D46FB7B093B604A127802FB03F31846B6
:10289000FDF750FE4FF033325C4BFDF7B5FE0246BC
:1028A0000B4620462946FDF7F9FC02460B4610462A
:1028B0001946FEF781F9034698B2554B1B78E13370
:1028C00099B2514B1B781A46524B1B781C4640F26A
:1028D000FF730193052300932346FFF7B6F9FB7BB3
:1028E00001331A464C494D4808F05EF83BE0454B31
:1028F0001B781846FDF71EFE04460D46FB7B093B80
:10290000414A127802FB03F31846FDF713FE4FF01D
:1029100033323E4BFDF778FE02460B4620462946F1
:10292000FDF7BCFC02460B4610461946FEF744F97B
:10293000034698B2364B1B78E13399B2324B1B7881
:102940001A46344B1B781C464FF61F030193052390
:1029500000932346FFF779F9FB7B01331A46304990
:102960002E4808F021F8274B1B781846FDF7E2FDAA
:1029700004460D46FB7B093B234A127802FB03F316
:102980001846FDF7D7FD4FF03332204BFDF73CFEE4
:1029900002460B4620462946FDF780FC02460B46C0
:1029A00014461D461F4B1B781846FDF7C3FD024613
:1029B0000B4620462946FDF771FC02460B461046A1
:1029C0001946FEF7F9F8034698B2114B1B781A46E0
:1029D000154B1B7813449BB2E13399B2002301934A
:1029E00001230093114B0D4AFEF76AFFFB7B013375
:1029F000FB73FB7B092B7FF6A1AC00BF00BF103738
:102A0000BD46B0BD00000020020000203333F33F7C
:102A100001000020030000205CCC000858040020C6
:102A200068CC00080A0000200B0000200CD8000829
:102A3000F0B583B002AF4FF4F0734FF4A0720021F1
:102A40000020FEF737FB4FF6FF70FEF763FE7E4B6C
:102A50001B78143398B27D4B1B781C467C4B1B783B
:102A600032339AB27B4B1B781E339BB247F6E03170
:102A70000191052100912146FFF7E7F8002301931A
:102A800001230093744B754A48214B20FEF718FF31
:102A90006D4B1B781A466E4B1B7813449BB26E33FA
:102AA00098B26A4B1B781C46694B1B7832339AB23A
:102AB000684B1B781E339BB247F6E031019105212C
:102AC00000912146FFF7C1F85F4B1B781A46604B17
:102AD0001B7813449BB2913398B2002301930123D6
:102AE00000935D4B5E4A4821FEF7EAFE564B1B7889
:102AF000143398B2554B1B781A46564B1B78134427
:102B00009BB2323399B2524B1B7832339AB2514B4B
:102B10001B781E339BB24FF4FC640194052400948F
:102B2000FFF793F8494B1B785B001846FDF702FD51
:102B300004460D46474B1B781846FDF7FBFC4FF04B
:102B40003332484BFDF760FD02460B4610461946EE
:102B500002460B46FDF7A2FB02460B4620462946DD
:102B6000FDF79CFB02460B4610461946FEF724F87B
:102B7000034699B20023019301230093364B3A4A4E
:102B80005A20FEF79DFE394B1B78002B72D12E4B3D
:102B90001B781A462E4B1B7813449BB26E3398B2A7
:102BA0002A4B1B781A462B4B1B7813449BB23233AB
:102BB00099B2274B1B7832339AB2264B1B781E33BF
:102BC0009BB240F2FF74019405240094FFF73DF896
:102BD0001D4B1B781A461E4B1B7813449BB28C333B
:102BE0009EB21A4B1B785B001846FDF7A3FC044607
:102BF0000D46184B1B781846FDF79CFC4FF03332FE
:102C0000184BFDF701FD02460B46104619460246D9
:102C10000B46FDF743FB02460B4620462946FDF7CF
:102C20003DFB02460B4610461946FDF7C5FF03461D
:102C300099B20023019301230093074B0C4A3046BD
:102C4000FEF73EFE71E000BF000000200100002002
:102C50000200002003000020ECF1000874CC000802
:102C60007CCC00083333F33F84CC00088E04002072
:102C70008CCC00083A4B1B781A463A4B1B7813440D
:102C80009BB26E3398B2384B1B781A46374B1B7881
:102C900013449BB2323399B2324B1B7832339AB21F
:102CA000324B1B781E339BB24FF61F040194052450
:102CB0000094FEF7CAFF2A4B1B781A46294B1B7853
:102CC00013449BB28C339EB2274B1B785B00184693
:102CD000FDF730FC04460D46244B1B781846FDF7E3
:102CE00029FC4FF03332224BFDF78EFC02460B4697
:102CF0001046194602460B46FDF7D0FA02460B462F
:102D000020462946FDF7CAFA02460B4610461946E8
:102D1000FDF752FF034699B200230193012300936C
:102D2000144B154A3046FEF7CBFD4FF4FC6301937C
:102D3000052300933C234FF48772F5216420FEF7AE
:102D400084FF00230193012300930A4B0B4A40F2B6
:102D50001D11B920FEF7B4FD00BF0437BD46F0BD1C
:102D600000000020020000200100002003000020DD
:102D70003333F33FECF1000898CC0008A4CC0008F2
:102D8000B0B584B002AF4FF4F0734FF4A0720021DD
:102D90000020FEF78FF94FF6FF70FEF7BBFC002313
:102DA000FB7131E3FB79BF4AD35C002B7AD1BE4B78
:102DB0001B781846FDF7BEFB04460D46FB79BB4A5F
:102DC000127802FB03F31846FDF7B4FB4FF03332E1
:102DD000B74BFDF719FC02460B4620462946FDF786
:102DE0005DFA02460B4610461946FDF7E5FE03461E
:102DF00098B2B04B1B781946AC4B1B781A46AE4BB9
:102E00001B781C4640F2FF73019305230093234671
:102E1000FEF71BFFFB7901331A46A849A84807F0C3
:102E2000C3FDA14B1B781846FDF784FB04460D46F5
:102E3000FB799E4A127802FB03F31846FDF77AFBF2
:102E40004FF033329A4BFDF7DFFB02460B4620462C
:102E50002946FDF723FA02460B4614461D46994BB8
:102E60001B781846FDF766FB02460B4620462946AE
:102E7000FDF714FA02460B4610461946FDF79CFE74
:102E8000034698B28B4B1B781A468F4B1B78134422
:102E900099B200230193012300938C4B884AFEF7DB
:102EA0000FFD79E0804B1B781846FDF743FB044685
:102EB0000D46FB797D4A127802FB03F31846FDF7B5
:102EC00039FB4FF033327A4BFDF79EFB02460B463F
:102ED00020462946FDF7E2F902460B461046194600
:102EE000FDF76AFE034698B2724B1B7819466F4B8A
:102EF0001B781A46704B1B781C464FF61F03019334
:102F0000052300932346FEF7A0FEFB7901331A4602
:102F10006F496B4807F048FD634B1B781846FDF777
:102F200009FB04460D46FB79604A127802FB03F365
:102F30001846FDF7FFFA4FF033325D4BFDF764FBA7
:102F400002460B4620462946FDF7A8F902460B46E5
:102F500014461D465B4B1B781846FDF7EBFA0246FC
:102F60000B4620462946FDF799F902460B461046C6
:102F70001946FDF721FE034698B24E4B1B781A46C0
:102F8000514B1B78134499B2002301930123009302
:102F90004E4B4B4AFEF794FCFB790333414AD35C1A
:102FA000002B40F09780404B1B781846FDF7C2FA83
:102FB00004460D46FB793D4A127802FB03F318469E
:102FC000FDF7B8FA4FF03332394BFDF71DFB0246DF
:102FD0000B4620462946FDF761F902460B4610468E
:102FE0001946FDF7E9FD034698B2324B1B784B3387
:102FF00099B22E4B1B781A462F4B1B781C4640F279
:10300000FF730193052300932346FEF71EFEFB7911
:1030100004331A4629492A4807F0C6FC224B1B787C
:103020001846FDF787FA04460D46FB791F4A1278C9
:1030300002FB03F31846FDF77DFA4FF033321C4BC9
:10304000FDF7E2FA02460B4620462946FDF726F92F
:1030500002460B4614461D461A4B1B781846FDF7D0
:1030600069FA02460B4620462946FDF717F9024643
:103070000B4610461946FDF79FFD034698B20D4BCF
:103080001B781A46104B1B7813449BB24B3399B2F2
:1030900000230193012300930C4B094AFEF710FC17
:1030A00095E000BF80050020000000200200002005
:1030B0003333F33F01000020030000205CCC000804
:1030C000580400200A0000200B0000200CD8000843
:1030D00068CC0008804B1B781846FDF72BFA044695
:1030E0000D46FB797D4A127802FB03F31846FDF783
:1030F00021FA4FF033327A4BFDF786FA02460B463F
:1031000020462946FDF7CAF802460B4610461946E6
:10311000FDF752FD034698B2724B1B784B3399B2C0
:103120006E4B1B781A46704B1B781C464FF61F03DC
:103130000193052300932346FEF787FDFB790433B3
:103140001A466A496A4807F02FFC634B1B781846F9
:10315000FDF7F0F904460D46FB79604A127802FB50
:1031600003F31846FDF7E6F94FF033325C4BFDF7F9
:103170004BFA02460B4620462946FDF78FF80246D9
:103180000B4614461D465B4B1B781846FDF7D2F9DB
:1031900002460B4620462946FDF780F802460B46BC
:1031A00010461946FDF708FD034698B24D4B1B78B3
:1031B0001A46514B1B7813449BB24B3399B20023F0
:1031C0000193012300934D4B494AFEF779FBFB79AC
:1031D00006334B4AD35C002B40F096803E4B1B7865
:1031E0001846FDF7A7F904460D46FB793B4A1278CD
:1031F00002FB03F31846FDF79DF94FF03332384BCD
:10320000FDF702FA02460B4620462946FDF746F82E
:1032100002460B4610461946FDF7CEFC034698B20F
:10322000304B1B78963399B22C4B1B781A462E4B99
:103230001B781C4640F2FF7301930523009323463D
:10324000FEF703FDFB7907331A462E49284807F09D
:10325000ABFB214B1B781846FDF76CF904460D4675
:10326000FB791E4A127802FB03F31846FDF762F958
:103270004FF033321A4BFDF7C7F902460B46204692
:103280002946FDF70BF802460B4614461D46194B1E
:103290001B781846FDF74EF902460B462046294694
:1032A000FCF7FCFF02460B4610461946FDF784FC6E
:1032B000034698B20B4B1B781A460F4B1B781344EE
:1032C0009BB2963399B200230193012300930B4BD9
:1032D000074AFEF7F5FA94E0000000200200002003
:1032E0003333F33F010000200300002068CC0008C6
:1032F000580400200A0000200B0000200CD8000811
:10330000800500205CCC00085A4B1B781846FDF75E
:1033100011F904460D46FB79574A127802FB03F374
:103320001846FDF707F94FF03332544BFDF76CF9AF
:1033300002460B4620462946FCF7B0FF02460B46E4
:1033400010461946FDF738FC034698B24C4B1B78E3
:10335000963399B2484B1B781A464A4B1B781C4649
:103360004FF61F030193052300932346FEF76DFCE0
:10337000FB7907331A464449444807F015FB3D4B97
:103380001B781846FDF7D6F804460D46FB793A4AF5
:10339000127802FB03F31846FDF7CCF84FF03332F6
:1033A000364BFDF731F902460B4620462946FCF71D
:1033B00075FF02460B4614461D46354B1B781846D2
:1033C000FDF7B8F802460B4620462946FCF766FF93
:1033D00002460B4610461946FDF7EEFB034698B22F
:1033E000274B1B781A462B4B1B7813449BB2963302
:1033F00099B20023019301230093274B234AFEF740
:103400005FFAFB790133FB71FB79022B7FF6CAACC3
:10341000224B5B7A002B45D1164B1B781846184B74
:103420001B78E13399B2144B1B781A46154B1B7865
:103430001C4640F2FF730193052300932346FEF7D9
:1034400004FC0C4B1B781A46114B1B78134498B2A2
:103450000B4B1B781A460F4B1B7813449BB2E1337E
:1034600099B200230193012300930B4B0C4AFEF702
:1034700027FA44E000000020020000203333F33F2D
:10348000010000200300002068CC00085804002040
:103490000A0000200B0000200CD800088005002046
:1034A000ACCC0008914B1B781846914B1B78E1334C
:1034B00099B2904B1B781A468F4B1B781C464FF6DF
:1034C0001F030193052300932346FEF7BEFB874BA2
:1034D0001B781A46894B1B78134498B2844B1B788F
:1034E0001A46874B1B7813449BB2E13399B20023F1
:1034F000019301230093834B834AFEF7E1F97B4B51
:103500001B781846FDF716F804460D46794B1B78D4
:103510001846FDF70FF84FF033327C4BFDF774F887
:1035200002460B4620462946FCF7B8FE02460B46EB
:1035300010461946FDF740FB034698B26C4B1B78CA
:10354000E13399B26B4B1B781A466B4B1B781C46C8
:103550004FF4FC630193052300932346FEF775FBAC
:10356000624B1B781846FCF7E5FF04460D46614B9D
:103570001B781846FCF7DEFF4FF03332634BFDF744
:1035800043F802460B4620462946FCF787FE0246D2
:103590000B4614461D46594B1B781846FCF7CAFFCC
:1035A00002460B4620462946FCF778FE02460B46AB
:1035B00010461946FDF700FB034698B24C4B1B78AA
:1035C0001A464F4B1B7813449BB2E13399B2002348
:1035D0000193012300934B4B4D4AFEF771F9434B86
:1035E0001B781846FCF7A6FF04460D46414B1B7896
:1035F0001846FCF79FFF4FF03332444BFDF704F8B9
:1036000002460B461046194602460B46FCF746FE9C
:1036100002460B4620462946FCF740FE02460B4672
:1036200010461946FDF7C8FA034698B2304B1B788E
:10363000E13399B22F4B1B781A462F4B1B781C464F
:103640004FF4FC630193052300932346FEF7FDFA34
:10365000264B1B781846FCF76DFF04460D46254B9C
:103660001B785B001846FCF765FF4FF03332274BA1
:10367000FCF7CAFF02460B4620462946FCF70EFE21
:1036800002460B4614461D461C4B1B781846FCF799
:1036900051FF02460B4620462946FCF7FFFD024635
:1036A0000B46104619464FF000021A4BFCF7F6FD88
:1036B00002460B4610461946FDF77EFA034698B2BD
:1036C0000B4B1B781A460E4B1B7813449BB2E1330D
:1036D00099B200230193012300930F4B0F4AFEF789
:1036E000EFF800BF0837BD46B0BD00BF00000020A6
:1036F0000100002002000020030000200A0000203A
:103700000B0000200CD80008B8CC00083333F33F7E
:10371000A4CC00080000144028E40008C4CC000831
:10372000F0B587B002AF00233B81914B1B889BB261
:10373000632B19D98E4B1B889BB2B3F5AA7F13D884
:103740008C4B1B889BB2E52B0ED98A4B1B889BB2F6
:10375000B3F59E7F08D2884B1B78002B04D1864B93
:1037600001221A70FFF70CFB814B1B889BB2C72B01
:1037700019D97F4B1B889BB2B3F58C7F13D87D4B37
:103780001B889BB2FE2B0ED97A4B1B889BB2B3F5DC
:103790009E7F08D2784B1B78012B04D1764B0022F8
:1037A0001A70FEF7B3FB724B1B889BB2B3F5A77F71
:1037B00019D96F4B1B889BB2B3F5DC7F13D86D4BC7
:1037C0001B889BB2FE2B0ED96A4B1B889BB2B3F5AC
:1037D0009E7F08D2684B1B78012B04D1664B0222D6
:1037E0001A70FFF725F9644B1B78022B40F0C88153
:1037F0000023BB805E4B1B889BB23B2B33D95C4BB9
:103800001B889BB2D22B2ED85A4B1B889BB22C2BD9
:1038100029D9584B1B889BB2782B24D8574B40F2A0
:10382000FF321A80554B1B881B0A9BB2DBB23B71DF
:10383000524B1B88DBB27B71391D0223009302239C
:103840004F4A5048FEF7E4FA4B4B1B78012B03D14B
:103850004D494E48FEF76AFD484B1A884C4B1A807A
:103860004C4B01221A70424B1B889BB2B3F5877FE9
:1038700033D33F4B1B889BB2B3F5D57F2DD23D4B45
:103880001B889BB22C2B28D93A4B1B889BB2782BD8
:1038900023D83A4B00221A80384B1B881B0A9BB254
:1038A000DBB23B71354B1B88DBB27B71391D0223C8
:1038B00000930223324A3348FEF7AAFA2E4B1B78B4
:1038C000012B03D130493148FEF730FD2B4B1A88CC
:1038D0002F4B1A802F4B01221A70254B1B889BB24D
:1038E0003B2B13D9224B1B889BB2D22B0ED8214BDA
:1038F0001B889BB2BD2B09D91E4B1B889BB2E62BA4
:1039000004D81D4B01221A70FFF73AFA184B1B8896
:103910009BB2B3F5877FC0F01381154B1B889BB218
:10392000B3F5D57F80F00C81124B1B889BB2BD2B69
:1039300040F206810F4B1B889BB2E62B00F2008100
:10394000154B00221A8000BF134B1B889BB21D2B06
:10395000FAD9124B1B78002B0CBF01230023DBB2DA
:103960001A460E4B1A700D4B1B78002B18E000BF47
:1039700054040020560400206C040020860400201B
:103980001A00002010000020800500207004002094
:103990008804002095040020900400208E0400205C
:1039A00061D101224FF40061794803F067F9794B46
:1039B0001B781A46784B1B7813449BB26E3398B22F
:1039C000764B1B781A46764B1B7813449BB23233E6
:1039D00099B2714B1B7832339AB2714B1B781E33FC
:1039E0009BB240F2FF74019405240094FEF72DF978
:1039F000684B1B781A46684B1B7813449BB28C3378
:103A00009EB2664B1B785B001846FCF793FD04469C
:103A10000D46634B1B781846FCF78CFD4FF0333294
:103A2000604BFCF7F1FD02460B4610461946024674
:103A30000B46FCF733FC02460B4620462946FCF7B2
:103A40002DFC02460B4610461946FDF7B5F8034615
:103A500099B20023019301230093534B534A3046FC
:103A6000FDF72EFF60E000224FF40061484803F0AC
:103A700005F9484B1B781A46474B1B7813449BB2F9
:103A80006E3398B2454B1B781A46454B1B7813444E
:103A90009BB2323399B2404B1B7832339AB2404BCF
:103AA0001B781E339BB24FF61F040194052400942B
:103AB000FEF7CBF8374B1B781A46374B1B7813446D
:103AC0009BB28C339EB2354B1B785B001846FCF7DB
:103AD00031FD04460D46324B1B781846FCF72AFD93
:103AE0004FF033322F4BFCF78FFD02460B4610464A
:103AF000194602460B46FCF7D1FB02460B46204610
:103B00002946FCF7CBFB02460B4610461946FDF74B
:103B100053F8034699B20023019301230093224BEB
:103B2000234A3046FDF7CCFE012300930223214AAD
:103B300021492248FEF76CF91F4B1A78204B1A7066
:103B4000204B1B889BB2592B40F29A821D4B1B883D
:103B50009BB2B3F5AD7F80F093821B4B1B889BB269
:103B6000F42B40F28D82184B1B889BB2B3F59E7FDD
:103B700080F08682154B00221A70FEF7C7F97FE2AB
:103B8000124B1B78012B40F07B820023FB6072E21A
:103B90000000024000000020020000200100002080
:103BA000030000203333F33FECF100088CCC000815
:103BB00098CC00081A0000208E0400201400002079
:103BC0008F04002054040020560400206C040020C0
:103BD000944B1B889BB21946934AFB6832F813300A
:103BE0001A46924B1B7813449942C0F283808D4B46
:103BF0001B889BB219468E4B1B7818468A4AFB6875
:103C000032F813300344894A12789B1A994271DCC6
:103C1000884B1B889BB2312B6CD9864B1B889BB27F
:103C2000502B67D8844B00221A8000BF824B1B8820
:103C30009BB21D2BFAD9814AFB6813441B78002BD9
:103C40000CBF01230023DBB219467C4AFB681344F6
:103C50000A461A70794AFB6813441B7863F07F03A5
:103C6000D9B2774AFB6813440A461A70FB68DBB284
:103C7000184600F085FB714AFB6813441B78002B43
:103C80000DD10122FB6802FA03F39BB2DB439AB227
:103C90006C4B1B8813409AB26A4B1A800AE00122CF
:103CA000FB6802FA03F39AB2664B1B8813439AB27D
:103CB000644B1A80634B1B881B0A9BB2DBB23B72BE
:103CC000604B1B88DBB27B7207F108010223009373
:103CD00002235D4A5D48FEF79BF85D4B1B78012B84
:103CE00003D15C495548FEF721FB564B1A885A4BC5
:103CF0001A80C5E14B4B1B889BB219464A4AFB68A8
:103D000032F813301A46494B1B7813449942C0F2DB
:103D1000A580444B1B889BB21946454B1B7818461F
:103D2000414AFB6832F813300344404A12789B1A28
:103D3000994200F393803F4B1B889BB2812B40F24A
:103D40008D803C4B1B889BB2A02B00F287803A4BA6
:103D500000221A8000BF384B1B889BB21D2BFAD95A
:103D6000FB680333354AD35C002B0CBF01230023CF
:103D7000DAB2FB6803331146304AD154FB6803338F
:103D80002E4AD25CFB68033362F07F02D1B22C4A28
:103D9000D154FB68DBB20333DBB2184600F0F0FA13
:103DA000264AFB6813441B78002B0ED1FB680333B3
:103DB000012202FA03F39BB2DB439AB2214B1B8828
:103DC00013409AB21F4B1A800BE0FB6803330122A9
:103DD00002FA03F39AB21B4B1B8813439AB2194B96
:103DE0001A80184B1B881B0A9BB2DBB23B72154B27
:103DF0001B88DBB27B7207F10801022300930223C8
:103E0000114A1248FEF704F8114B1B78012B03D11D
:103E100010490A48FEF78AFA0A4B1A880E4B1A8094
:103E20002EE100BF54040020040000200A000020FE
:103E3000020000205604002090040020700400209E
:103E40007C040020860400201A00002010000020BE
:103E50006C04002080050020880400208A4B1B8809
:103E60009BB21946894AFB6832F813301A46884BD0
:103E70001B7813449942C0F28580834B1B889BB208
:103E80001946844B1B781846804AFB6832F8133079
:103E900003447F4A12789B1A994273DC7E4B1B883D
:103EA0009BB2C72B6ED97C4B1B889BB2E62B69D883
:103EB0007A4B00221A8000BF784B1B889BB21D2BC7
:103EC000FAD9FB680633764AD35C002B0CBF01237A
:103ED0000023DAB2FB6806331146714AD154FB68FD
:103EE00006336F4AD25CFB68063362F07F02D1B2C0
:103EF0006C4AD154FB68DBB20633DBB2184600F0E3
:103F00003FFA674AFB6813441B78002B0ED1FB680D
:103F10000633012202FA03F39BB2DB439AB2624BEF
:103F20001B8813409AB2604B1A800BE0FB68063383
:103F3000012202FA03F39AB25B4B1B8813439AB235
:103F4000594B1A80584B1B881B0A9BB2DBB23B7241
:103F5000554B1B88DBB27B7207F1080102230093EB
:103F60000223524A5248FDF753FF524B1B78012B54
:103F700003D151494A48FEF7D9F94B4B1A884F4BA8
:103F80001A807DE0404B1B889BB21A463F4B1B8832
:103F900019463F4B1B780B449A4269DB3A4B1B880E
:103FA0009BB219463B4B1B781A46384B1B8813446F
:103FB000374A12789B1A99425ADC374B1B889BB2BE
:103FC000F92B55D9344B1B889BB2B3F58C7F4FD856
:103FD000324B00221A8000BF304B1B889BB21D2B36
:103FE000FAD92F4B5B7A002B0CBF01230023DBB2E5
:103FF0001A462B4B5A722A4B5B7A63F07F03DAB274
:10400000284B5A72092000F0BBF9254B5B7A002B34
:1040100007D1254B1B8823F400739AB2224B1A80D8
:1040200006E0214B1B8843F400739AB21E4B1A80A2
:104030001D4B1B881B0A9BB2DBB23B721A4B1B88C1
:10404000DBB27B7207F10801022300930223174AB7
:104050001748FDF7DDFE174B1B78012B03D11649DE
:104060000F48FEF763F9104B1A88144B1A8007E0CB
:10407000FB680133FB60FB68022B7FF7A9ADFFE70C
:1040800000BF1437BD46F0BD5404002004000020DA
:104090000A000020020000205604002090040020A6
:1040A000700400207C040020860400201A000020F8
:1040B000100000206C0400208005002088040020EF
:1040C000B0B5ACB002AF78608A4B07F164041D460E
:1040D0000FCD0FC40FCD0FC42B682360864B07F1A3
:1040E00040041D460FCD0FC40FCD0FC42B682360B5
:1040F000824B07F11C041D460FCD0FC40FCD0FC41A
:104100002B6823607E4B07F108041D460FCD0FC4BA
:104110002B6823805A23C7F8A0301E23C7F89C3091
:104120000023C7F8A43098E0D7F8A4307A68134485
:104130001B78002B4AD0D7F8A4309B00A8333B440F
:1041400053F8443C18B2D7F8A4309B00A8333B4442
:1041500053F8683C19B2D7F8A0301AB2D7F89C309F
:104160001BB24FF6FF740094FCF7FEFF654AD7F8C8
:10417000A4309B0013441B681846FCF7EDF9024677
:104180000B4607F18800604906F00EFCD7F8A43012
:104190009B00A8333B4453F8443C98B2D7F8A43072
:1041A0009B00A8333B4453F88C3C99B2D7F8A43019
:1041B0005B00A8333B4433F8A03C07F1880201932D
:1041C00001230093514BFDF77BFB41E0504AD7F8A8
:1041D000A43013441B78002B3AD1D7F8A4309B00AD
:1041E000A8333B4453F8443C18B2D7F8A4309B00A2
:1041F000A8333B4453F8683C19B2D7F8A0301AB240
:10420000D7F89C301BB24FF6FF740094FCF7ACFF5C
:10421000D7F8A4309B00A8333B4453F8443C9BB2EE
:10422000013398B2D7F8A4309B00A8333B4453F82D
:104230008C3C99B2D7F8A4305B00A8333B4433F8E8
:10424000A03C019301230093304B324AFDF738FB29
:10425000D7F8A4300133C7F8A430D7F8A430082B1E
:104260007FF762AF7B6809331B78002B23D04FF6B2
:10427000FF7300931E235522D7214FF4B970FCF72A
:1042800073FF204B5B6A1846FCF766F902460B4643
:1042900007F188001C4906F087FB07F188024FF4FC
:1042A000F043019301230093184BF0214FF4B970B0
:1042B000FDF706FB19E0164B5B7A002B15D14FF684
:1042C000FF7300931E235522D7214FF4B970FCF7DA
:1042D0004BFF4FF4F0430193012300930B4B0D4A26
:1042E000F0214FF4B970FDF7EBFA00BFA837BD46D7
:1042F000B0BD00BFD8CC0008FCCC000820CD000821
:1043000044CD000898050020CCCC0008ECF1000852
:104310008C050020D4CC000880B584B000AF0346E3
:10432000FB7101F0FFFA00210D2001F0CBFA002112
:10433000222001F0C7FA114AFB7913700F4BFD22BE
:104340005A700E4BFF229A700023FB7309E0FB7B2F
:104350000A4AD35C1946002001F0B4FAFB7B013312
:10436000FB73FB7B022BF2D90321222001F0AAFA76
:1043700001F0E8FA00BF1037BD4680BD9804002068
:1043800080B586B000AF0346FB7101F0AFFD386128
:104390003223FB60264801F001FB01F0C3FA002143
:1043A0000D2001F08FFA0021222001F08BFA214A22
:1043B000FB7913701F4BFE225A70FB791E4AD25CA8
:1043C0001C4B9A701D4B1B6800225A620023FB7520
:1043D00009E0FB7D174AD35C1946002001F072FA10
:1043E000FB7D0133FB75FB7D022BF2D903212220DB
:1043F00001F068FA01F0A6FA07E001F077FD024645
:104400003B69D31AFA689A4208D3122001F02CFAB9
:10441000034603F00803002BEFD000E000BF0821A3
:10442000122001F04FFA00BF1837BD4680BD00BF13
:1044300000406C00980400207C040020C40300208D
:1044400080B582B000AF78607B681B68B3F1804FA5
:1044500013D101F0A7FC03461A460E4B1A8001F057
:10446000ABFC03461A460C4B1A800C4B1B889BB2C4
:1044700001339AB2094B1A8007E07B681B68084A2F
:10448000934202D1074B01221A7000BF0837BD4684
:1044900080BD00BF5404002056040020900400207A
:1044A000000400409304002080B582B000AF0346B2
:1044B000FB80FB88082B06D10821122001F002FAAC
:1044C00001F048FA00BF00BF0837BD4680BD80B488
:1044D00083B000AF87ED010A38607A683B681A60E4
:1044E00000BF0C37BD465DF8047B7047F0B585B062
:1044F00002AF78607B681B68924A934240F01E814D
:10450000914B1B78832B06D1904B01221A70904B54
:1045100000221A7039E08C4B1B78502B11D08B4B3A
:104520001B78012B0DD18A4B1B781A46864B1978C4
:10453000884B9954864B1B780133DAB2844B1A703E
:1045400023E0814B1B78502B1FD1804B1B78012B14
:104550001BD1804B1B78FE2B04D17E4B5A787E4BAF
:104560001A700FE07B4B1B78FD2B0BD1794B5B78DE
:104570001B021AB2774B9B781BB213431BB29AB241
:10458000764B1A80714B00221A70754B1A78724B59
:104590001B789A4200F0CB806F4B1B78002B61D1C7
:1045A00001224FF400616F4802F068FB6E4B1B78EC
:1045B0001A466E4B1B7813449BB26E3398B26C4B09
:1045C0001B781A466B4B1B7813449BB2323399B25B
:1045D000664B1B7832339AB2664B1B781E339BB204
:1045E00040F2FF74019405240094FDF72EFB5E4B0E
:1045F0001B781A465D4B1B7813449BB28C339EB2DA
:104600005B4B1B785B001846FBF794FF04460D4696
:10461000584B1B781846FBF78DFF4FF03332564B43
:10462000FBF7F2FF02460B461046194602460B46C0
:10463000FBF734FE02460B4620462946FBF72EFECA
:1046400002460B4610461946FCF7B6FA034699B2E5
:104650000023019301230093484B494A3046FDF75C
:104660002FF960E000224FF400613E4802F006FBA3
:104670003D4B1B781A463D4B1B7813449BB26E335F
:1046800098B23B4B1B781A463A4B1B7813449BB2AB
:10469000323399B2354B1B7832339AB2354B1B7893
:1046A0001E339BB24FF61F04019405240094FDF7BE
:1046B000CCFA2D4B1B781A462C4B1B7813449BB21B
:1046C0008C339EB22A4B1B785B001846FBF732FFF7
:1046D00004460D46274B1B781846FBF72BFF4FF07F
:1046E0003332254BFBF790FF02460B461046194626
:1046F00002460B46FBF7D2FD02460B4620462946F2
:10470000FBF7CCFD02460B4610461946FCF754FA5F
:10471000034699B20023019301230093174B194AD2
:104720003046FDF7CDF80C4B1A780D4B1A700B4B39
:104730001A88154B1A80154B01221A7000BF0C37CE
:10474000BD46F0BD001001401006002011060020FB
:1047500017060020140600208E0400208604002086
:104760008F04002000000240000000200200002012
:1047700001000020030000203333F33FECF1000878
:104780008CCC000898CC00088804002095040020F8
:10479000B0B586B002AF01F043FB00F089FB00F03A
:1047A00075FD00F053FD00F08DFC00F01FFC00F0E3
:1047B000E7FB00F051FC00F0D1FC00F01DFD0022F1
:1047C0004FF48071374802F059FA002200211C2072
:1047D00001F097FC1C2001F0B0FC334803F08AFF85
:1047E000FCF782FB0120FCF757FD304801F0D6F8BA
:1047F0002F4803F07FFF01222E492F4804F03FFC91
:104800002E492F48FDF788FA2E4B1B78DBB2002B80
:1048100000F04C812C4B1B78DBB283F00103DBB240
:10482000002B00F04381122001F01EF8034603F034
:104830004003402B40F0F480122001F015F80346AD
:1048400043F04003DBB21946122001F03BF8102080
:1048500001F00AF8034619460D2001F033F8002054
:1048600001F002F803461A46184B1B789A4240F0B2
:10487000D78012491248FDF74FFA144B1B781A469D
:10488000134B01219954114B1B781A46114B0121EE
:1048900099540E4B1B781A460F4B00219954002354
:1048A000FB7330E0000002407C03002000406C00FD
:1048B000C4030020100600200C0400208005002006
:1048C000700400209304002095040020640500205B
:1048D000740500208C05002068050020A04B1B7883
:1048E0001D46FC7B002000F0BFFF034619469D4A91
:1048F0002B469B002B449B00134423440A461A700A
:10490000FB7B0133FB73FB7B102BE7D900237B81FF
:10491000934B1B781946934A0B469B000B449B0014
:1049200013441B78303B9BB21A465201D21A9200B4
:104930001344DB009AB28A4B1B7818468949034618
:104940009B0003449B000B4401331B78303B9BB21C
:10495000194689000B4419468800194603460B4442
:104960009B009BB213449AB27D4B1B7818467D493D
:1049700003469B0003449B000B4402331B78303BEF
:104980009BB2194689000B445B009BB213449AB258
:10499000734B1B781846734903469B0003449B00E6
:1049A0000B4403331B7813449BB2303B7B817B89E0
:1049B00007EE903AB8EE677A694B1B78DFED6A6ACA
:1049C000C7EE267A694A9B001344C3ED007A644B14
:1049D0001B78664A9B001344D3ED007A9FED647AFE
:1049E000F4EEC77AF1EE10FA06DB5D4B1B785F4AF6
:1049F0009B0013445F4A1A60594B1B781946584B69
:104A00001B781846574A0B469B000B449B001344E7
:104A100010331A78584B1A5457495848FDF77CF907
:104A20004F4B1B781A46564B9B5C002B1AD14C4BB4
:104A30001B78544AD25C0132D1B2524AD154484B0D
:104A40001B781A464F4B9B5C012B0BD9444B1B78B0
:104A50001A464C4B02219954414B1B781A464A4B3B
:104A6000002199543E4B1B780133DAB23C4B1A704B
:104A70003B4B1B78092B02D9394B00221A70384B5B
:104A80001B781846FFF748FC354B1B781A463C4B01
:104A9000002199543D4B01221A703D4B1B78013384
:104AA000DAB23B4B1A703B4B00221A70FEF738FE0D
:104AB000394B1B78002B16D1344B1B78002B12D0AE
:104AC000364A2A493648FDF7C7F903461A46354B98
:104AD0001A70344B1B78002B02D03048FFF7F0FAE5
:104AE0002A4B00221A702C4B1B78012B0AD1274B22
:104AF0001B78002B06D021491F48FDF717FC234BDC
:104B000000221A70224B1B78082B7FF679AE002307
:104B10003B810023BB80244B1B7883F00103DBB275
:104B2000002B00F0DB801C4B1B78002B01D1FDF724
:104B3000EDF900237B7367E07B7B0F4AD35C002B8E
:104B400036D17B7B012202FA03F39BB2DB439AB29C
:104B5000164B1B8813409AB2144B1A8033E000BFE7
:104B6000640500209C0400200000C8429805002035
:104B700000004842000048428005002070040020E8
:104B800074050020680500208C0500206D040020BD
:104B900092040020930400206C04002018060020DA
:104BA000C005002022060020940400208604002076
:104BB0007B7B012202FA03F39AB2944B1B881343C6
:104BC0009AB2924B1A807B7B914AD35C002B0DD119
:104BD0007B7B012202FA03F39BB2DB439AB28D4B3B
:104BE0001B8813409AB28B4B1A800AE07B7B012210
:104BF00002FA03F39AB2874B1B8813439AB2854B90
:104C00001A807B7B01337B737B7B092B94D9012337
:104C100000930223804A81498148FDF7F9F87F4BD0
:104C20001A78804B1A70794B1B881B0A9BB2DBB237
:104C30003B72764B1B88DBB27B72744B1A887A4BC3
:104C40001A8007F10801022300930223724A774871
:104C5000FDF7DEF86F4B1B881B0A9BB2DBB23B7182
:104C60006C4B1B88DBB27B716A4B1A88704B1A80C5
:104C7000391D022300930223674A6E48FDF7C8F8E6
:104C80000023BB731BE0BA7BBB7B6B4992000A44D9
:104C900012686A499B000B441A60BB7B674A9B0001
:104CA0001344D3ED007ABB7B9B00654A134418463E
:104CB000B0EE670AFFF70BFCBB7B0133BB73BB7B1A
:104CC000092BE0D9282300930123534A5C495D480E
:104CD000FDF79EF85C4B01221A70DAE05B495C48F4
:104CE000FDF71AF800237B733EE07B7B574AD35CC9
:104CF000002B0DD17B7B012202FA03F39BB2DB4335
:104D00009AB2424B1B8813409AB2404B1A800AE079
:104D10007B7B012202FA03F39AB23C4B1B881343BC
:104D20009AB23A4B1A807B7B394AD35C002B0DD167
:104D30007B7B012202FA03F39BB2DB439AB2354B31
:104D40001B8813409AB2334B1A800AE07B7B012206
:104D500002FA03F39AB22F4B1B8813439AB22D4BDE
:104D60001A807B7B01337B737B7B092BBDD92D4B59
:104D70001A782A4B1B789A4207D00123009302230A
:104D8000254A26492648FDF743F8294B1A88214B26
:104D90001B889A4215D01F4B1A88254B1A80244B2A
:104DA0001B881B0A9BB2DBB23B71214B1B88DBB219
:104DB0007B71391D022300930223174A1D48FDF71A
:104DC00027F8194B1A88114B1B889A4216D00F4BA3
:104DD0001A88154B1A80144B1B881B0A9BB2DBB236
:104DE0003B72114B1B88DBB27B7207F10801022377
:104DF00000930223084A0D48FDF70AF8154B1B786B
:104E0000002B46D00023BB7338E000BF860400208F
:104E10008C0500208A0400201A0000208E04002047
:104E2000140000208F0400208804002010000020BF
:104E30008C0400201800002098050020C0050020E8
:104E4000E80500200D0000209404002080050020CB
:104E50007004002022060020BB7B104A9B001344F4
:104E6000D3ED007ABB7B9B000D4A13441846B0EE8D
:104E7000670AFFF72CFBBB7B0133BB73BB7B092BA2
:104E8000EAD9282300930123064A05490648FCF77E
:104E9000BFFF064B00221A70B2E400BFC00500201D
:104EA000E80500201A0000200D00002092040020D8
:104EB00080B594B000AF07F12003302200211846DE
:104EC00005F0D5FD07F10C0300221A605A609A60C4
:104ED000DA601A610023BB60274B1B6C264A43F043
:104EE00080531364244B1B6C03F08053BB60BB687E
:104EF00000237B60214B1B68204A43F4404313602E
:104F00001E4B1B6803F440437B607B6801233B62BC
:104F10004FF480337B620223BB634FF48003FB6357
:104F200004233B6464237B640223BB640423FB648B
:104F300007F12003184601F0D3FE0346002B01D0F1
:104F400000F05AFA0F23FB6002233B6100237B61D0
:104F50004FF48053BB610023FB6107F10C03032175
:104F6000184602F035F90346002B01D000F044FA50
:104F700000BF5037BD4680BD003802400070004081
:104F800080B500AF174B184A1A60164B4FF4827267
:104F90005A60144B00229A60124B0022DA60114BC7
:104FA00000221A610F4B00225A610E4B4FF400721F
:104FB0009A610C4B1822DA610A4B00221A62094BE3
:104FC00000225A62074B00229A62064B0A22DA62DA
:104FD000044802F01DFB0346002B01D000F00CFA40
:104FE00000BF80BD140200200030014080B500AF3A
:104FF000174B184A1A60164B4FF482725A60144BC2
:1050000000229A60124B0022DA60114B00221A61D2
:105010000F4B00225A610E4B4FF400729A610C4BF9
:105020000022DA610A4B00221A62094B00225A62FE
:10503000074B00229A62064B0A22DA62044802F009
:10504000E7FA0346002B01D000F0D6F900BF80BD7F
:105050006C0200200038004080B500AF174B184AA2
:105060001A60164B4FF482725A60144B00229A60F9
:10507000124B0022DA60114B00221A610F4B002202
:105080005A610E4B4FF400729A610C4B1822DA6190
:105090000A4B00221A62094B00225A62074B002277
:1050A0009A62064B0A22DA62044802F0B1FA034619
:1050B000002B01D000F0A0F900BF80BDC402002089
:1050C000003C004080B586B000AF07F10803002225
:1050D0001A605A609A60DA603B4600221A605A6091
:1050E0001D4B4FF080421A601B4B63225A601A4BD3
:1050F00000229A60184B42F20F72DA60164B0022BF
:105100001A61154B00229A61134803F0A3FA034673
:10511000002B01D000F070F94FF48053BB6007F111
:10512000080319460C4803F037FC0346002B01D056
:1051300000F062F900233B6000237B603B46194688
:10514000054803F03FFE0346002B01D000F054F960
:1051500000BF1837BD4680BD7C03002080B586B0F7
:1051600000AF07F1080300221A605A609A60DA6003
:105170003B4600221A605A601D4B1E4A1A601C4BA7
:1051800042F20F725A601A4B00229A60184B41F299
:105190008732DA60164B00221A61154B00229A61A1
:1051A000134803F057FA0346002B01D000F024F90E
:1051B0004FF48053BB6007F1080319460C4803F015
:1051C000EBFB0346002B01D000F016F900233B60F7
:1051D00000237B603B461946054803F0F3FD034678
:1051E000002B01D000F008F900BF1837BD4680BD84
:1051F000C40300200004004080B500AF114B124AE8
:105200001A60104B4FF461225A600E4B00229A60D4
:105210000C4B0022DA600B4B00221A61094B0C2266
:105220005A61084B00229A61064B0022DA61054858
:1052300003F04AFE0346002B01D000F0DDF800BF6A
:1052400080BD00BF0C0400200010014080B582B07A
:1052500000AF00237B600C4B1B6B0B4A43F4001325
:105260001363094B1B6B03F400137B607B68002204
:1052700000210F2000F045FF0F2000F05EFF00BF6F
:105280000837BD4680BD00BF0038024080B58AB0F7
:1052900000AF07F1140300221A605A609A60DA60C6
:1052A0001A6100233B61504B1B6B4F4A43F00403D0
:1052B00013634D4B1B6B03F004033B613B690023FD
:1052C000FB60494B1B6B484A43F080031363464B1A
:1052D0001B6B03F08003FB60FB680023BB60424B49
:1052E0001B6B414A43F0010313633F4B1B6B03F0FD
:1052F0000103BB60BB6800237B603B4B1B6B3A4ADE
:1053000043F002031363384B1B6B03F002037B6013
:105310007B6800224FF4C041344801F0AFFC00220A
:1053200042F20701324801F0A9FC00224FF48071DB
:10533000304801F0A3FC01224FF400612D4801F038
:105340009DFC4FF4C0437B610123BB610023FB61E3
:1053500000233B6207F114031946244801F00AFBBD
:1053600008237B614FF48813BB610223FB6107F1C3
:10537000140319461F4801F0FDFA10237B61002336
:10538000BB610023FB6107F114031946194801F0C2
:10539000F1FA42F207037B610123BB610023FB6149
:1053A00000233B6207F114031946114801F0E2FAA9
:1053B0004FF410637B610123BB610023FB61002379
:1053C0003B6207F1140319460A4801F0D3FA0022A0
:1053D0000121092000F095FE092000F0AEFE00BF7B
:1053E0002837BD4680BD00BF00380240000802409B
:1053F000000402400000024080B400AF72B600BF5B
:1054000000BFFDE780B483B000AF00237B60104B8A
:105410005B6C0F4A43F4804353640D4B5B6C03F4A5
:1054200080437B607B6800233B60094B1B6C084A10
:1054300043F080531364064B1B6C03F080533B60B6
:105440003B6800BF0C37BD465DF8047B704700BF6A
:105450000038024080B58EB000AF786007F12403B9
:1054600000221A605A609A60DA601A617B681B68D1
:10547000724A934234D100233B62714B5B6C704A99
:1054800043F4805353646E4B5B6C03F480533B6274
:105490003B6A0023FB616A4B1B6B694A43F00103C3
:1054A0001363674B1B6B03F00103FB61FB69E02394
:1054B0007B620223BB620023FB6203233B63052361
:1054C0007B6307F1240319465E4801F053FA00227A
:1054D0000021232000F015FE232000F02EFEA9E07D
:1054E0007B681B68584A934262D10023BB61544BCE
:1054F0001B6C534A43F480431364514B1B6C03F4FD
:105500008043BB61BB6900237B614D4B1B6B4C4AE5
:1055100043F0020313634A4B1B6B03F002037B61EE
:105520007B694FF444437B620223BB620023FB622E
:1055300003233B6305237B6307F124031946434898
:1055400001F018FA424B434A1A60414B00225A605C
:105550003F4B40229A603E4B0022DA603C4B4FF4B6
:1055600080621A613A4B00225A61394B00229A61DB
:10557000374B0022DA61364B00221A62344B00228C
:105580005A62334800F0F4FD0346002B01D0FFF7C8
:1055900033FF7B682E4A9A642D4A7B68936300220E
:1055A0000121242000F0ADFD242000F0C6FD41E0E3
:1055B0007B681B68284A93423CD100233B61204B07
:1055C0001B6C1F4A43F4004313641D4B1B6C03F414
:1055D00000433B613B690023FB60194B1B6B184A7E
:1055E00043F002031363164B1B6B03F00203FB60D3
:1055F000FB684FF480537B620223BB620023FB6293
:1056000003233B6307237B6307F1240319460F48F9
:1056100001F0B0F930237B620223BB620023FB62FE
:1056200003233B6306237B6307F1240319460748E2
:1056300001F0A0F900BF3837BD4680BD0030014001
:1056400000380240000002400038004000040240E0
:105650001C03002070600240003C004080B584B014
:1056600000AF78607B681B68B3F1804F16D10023D0
:10567000FB601A4B1B6C194A43F001031364174B70
:105680001B6C03F00103FB60FB68002201211C205E
:1056900000F037FD1C2000F050FD1AE07B681B680D
:1056A0000F4A934215D10023BB600C4B1B6C0B4A75
:1056B00043F002031364094B1B6C03F00203BB604D
:1056C000BB68002201211D2000F01BFD1D2000F001
:1056D00034FD00BF1037BD4680BD00BF003802401A
:1056E0000004004080B58AB000AF786007F1140371
:1056F00000221A605A609A60DA601A617B681B683F
:105700001D4A934234D100233B611C4B5B6C1B4A06
:1057100043F010035364194B5B6C03F010033B61BF
:105720003B690023FB60154B1B6B144A43F00103DC
:105730001363124B1B6B03F00103FB60FB684FF418
:10574000C0637B610223BB610023FB6103233B62D7
:1057500007237B6207F114031946094801F00AF98F
:1057600000220021252000F0CCFC252000F0E5FCE3
:1057700000BF2837BD4680BD001001400038024000
:105780000000024080B400AF00BFFDE780B400AF6E
:1057900000BFFDE780B400AF00BFFDE780B400AFFD
:1057A00000BFFDE780B400AF00BFFDE780B400AFED
:1057B00000BFBD465DF8047B704780B400AF00BFFA
:1057C000BD465DF8047B704780B400AF00BFBD46A6
:1057D0005DF8047B704780B500AF00F073FB00BF3D
:1057E00080BD80B500AF082001F062FA00BF80BD27
:1057F00080B500AF024800F053FE00BF80BD00BF7F
:105800001C03002080B500AF024802F0D5FF00BFA6
:1058100080BD00BF7C03002080B500AF024802F0CD
:10582000CBFF00BF80BD00BFC403002080B500AF28
:10583000024802F02FFC00BF80BD00BF1402002010
:1058400080B500AF024802F025FC00BF80BD00BF5C
:105850006C02002080B500AF024803F035FC00BFA9
:1058600080BD00BF0C04002080B582B000AF0346AD
:10587000FB71104B00221A60FB7903F07F03DAB250
:105880000D4B1A704FF0FF3301220B490B4801F00A
:1058900048FF4FF0FF3301220949084802F085F81C
:1058A000044B01221A60064B1B7818460837BD4688
:1058B00080BD00BFB402414224060020C402002083
:1058C0002806002080B582B000AF03460A46FB716F
:1058D0001346BB71104B00221A60FB7963F07F0303
:1058E000DAB20E4B1A704FF0FF3301220B490C480D
:1058F00001F017FF094ABB7913704FF0FF33012203
:105900000649074801F00DFF034B01221A6000BF52
:105910000837BD4680BD00BFB402414224060020C6
:10592000C402002080B500AF81210120FFF7CAFF2B
:1059300000BF80BD80B500AF80210120FFF7C2FF0E
:1059400000BF80BD80B500AF83210120FFF7BAFF03
:1059500000BF80BD80B500AF85210120FFF7B2FFF9
:1059600000BF80BD80B582B000AF78607B681B0C43
:10597000DBB219460620FFF7A5FF7B681B0ADBB2E6
:1059800019460720FFF79EFF7B68DBB21946082007
:10599000FFF798FF00BF0837BD4680BD80B582B0D5
:1059A00000AF7860214B00221A60012000F0AAFAB3
:1059B0001E4B01221A60012000F0A4FAFFF7B2FF8B
:1059C000012000F09FFAFFF7B5FF7868FFF7CAFFE4
:1059D00072211D20FFF776FF70211E20FFF772FF56
:1059E00000210E20FFF76EFF00210F20FFF76AFF56
:1059F00023210C20FFF766FF04212620FFF762FF1A
:105A000084214D20FFF75EFF2B210B20FFF75AFF6B
:105A10008F210920FFF756FF40214020FFF752FF5A
:105A2000FFF780FF00BF0837BD4680BDB802414286
:105A300080B400AF01231846BD465DF8047B704773
:105A400080B582B000AF7860396005F063F8034636
:105A500016221A604FF0FF3318460837BD4680BD46
:105A600080B582B000AF78604FF0FF317868FFF703
:105A7000E7FF00BFFDE780B586B000AFF860B96012
:105A80007A6000237B610AE0AFF300800146BB68C7
:105A90005A1CBA60CAB21A707B6901337B617A6999
:105AA0007B689A42F0DB7B6818461837BD4680BD9C
:105AB00080B586B000AFF860B9607A6000237B6182
:105AC00009E0BB685A1CBA601B781846AFF3008027
:105AD0007B6901337B617A697B689A42F1DB7B6881
